:100000000C9480000C9413020C9413020C941302B1
:100010000C9413020C9413020C9413020C9413020C
:100020000C9413020C9413020C9413020C942401EC
:100030000C9413020C9413020C9413020C941302EC
:100040000C9413020C9413020C9413020C941302DC
:100050000C9413020C9413020C9413020C941302CC
:100060000C9413020C9413020C9413020C941302BC
:100070000C9413020C9413020C9413020C941302AC
:100080000C9413020C9413020C9413020C9413029C
:100090000C9413020C9413020C9413020C9413028C
:1000A0000C9413020C9413020C9413020C9413027C
:1000B0000C9413020C945B010C9413020C94130225
:1000C0000C9413020C9413020C9413020C9413025C
:1000D0000C9413020C9413020C9413020C9413024C
:1000E0000C9413020C9413020C9413020C9413023C
:1000F0000C94130240004001804001400200042A99
:1001000011241FBECFEFCDBFDFE7DEBFE4EFF0E08D
:1001100041E019C0B791A79137912791079107FD49
:100120000EC097918791EF01F92FE82F0BBF079031
:100130000D92A217B307D9F7FE011BBE04C01D9292
:10014000A217B307E1F7E030F40721F70E94AC00F3
:080150000C94AA00F894FFCF03
:100158000E9495010E94AD0180916000816090E04D
:1001680028ED24BF809360000E947901809150009F
:10017800897F82608093500078941BC0823009F494
:1001880056C0833009F04BC0809100400E940102A4
:100198000E9407020E94BB0110920140809150000A
:1001A8008160809350008895809150008E7F809365
:1001B800500080910140882389F38091480480771A
:1001C80090E09595879595958795959587959595BB
:1001D80087958093004080910040843071F070F2E0
:1001E8008530A1F08630D9F4809100400E94010248
:1001F8000E9407020E94D501CFCF809100400E9443
:1002080001020E9407020E94C801C6CF80910040E7
:100218000E9401020E9407020E94E201BDCF81E014
:100228000E9401020E9407020E94F801B5CF809146
:1002380000400E9401020E9407020E94EE01ACCF1A
:100248001F920F920FB60F9211240BB60F922F9395
:100258003F934F935F936F937F938F939F93AF9346
:10026800BF93EF93FF930E940D02E0E0FAE081E074
:1002780090E080A391A380E1838710920140E0E29F
:10028800F4E082898360828BFF91EF91BF91AF91F7
:100298009F918F917F916F915F914F913F912F9196
:0E02A8000F900BBE0F900FBE0F901F90189579
:1002B6001F920F920FB60F9211240BB60F928F93C7
:1002C600EF93FF93E0E2F4E084E0818781E080939E
:1002D600014082898C7F828BFF91EF918F910F90E5
:0C02E6000BBE0F900FBE0F901F901895DC
:1002F200E0E0F2E081E082AF9BE4908BE0E0FAE0A4
:10030200818721E030E020A731A790E1928721E8A0
:100312002083E0E4FAE08383918380E887A380E48A
:0803220081A78CE88083089597
:10032A00E0E4F4E088E8838780E78487E0E6F4E0A5
:10033A0084E083879EEB94879EE090938C04E0E2AE
:10034A00F4E098E09183958382838BE0828B089511
:10035A00E0E0F7E0128295E8908B8FE7848B908F2C
:0C036A00848F90A384A381E08083089519
:10037600E0E0F7E085EB828B80E1838B95ED928F51
:0A038600838F95EF92A383A30895DF
:10039000E0E0F7E089EA828B84E1838B99EC928F2D
:0A03A000838F99EE92A383A30895C2
:1003AA00E0E0F7E085E1828B80E2838B128E838F17
:0A03BA0081EF82A386E183A308957A
:1003C400E0E0F7E0128A80E2838B81EF828F80E1A4
:0803D400838F12A213A2089509
:1003DC00E0E0F7E0128A80E2838B128E838F12A208
:0403EC0083A308954A
:1003F000E0E0F7E0128A138A128E138E12A213A283
:0204000008955D
:0C04020090E08093280A9093290A089546
:0C040E00E0E4FAE08081816080830895C2
:0C041A00E0E4FAE080818E7F808308958A
:040426000C94000032
:01042A0001D0
:02000004008278
:090000000000000000C00800002F
:02000004008377
:040000005CC5C55CBA
:00000001FF
