:100000000C9480000C9414020C9414020C941402AE
:100010000C9414020C9414020C9414020C94140208
:100020000C9414020C9414020C9414020C941801F5
:100030000C9414020C9414020C9414020C941402E8
:100040000C9414020C9414020C9414020C941402D8
:100050000C9414020C9414020C9414020C941402C8
:100060000C9414020C9414020C9414020C941402B8
:100070000C9414020C9414020C9414020C941402A8
:100080000C9414020C9414020C9414020C94140298
:100090000C9414020C9414020C9414020C94140288
:1000A0000C9414020C9414020C9414020C94140278
:1000B0000C9414020C944F010C9414020C9414022E
:1000C0000C9414020C9414020C9414020C94140258
:1000D0000C9414020C9414020C9414020C94140248
:1000E0000C9414020C9414020C9414020C94140238
:1000F0000C94140240004001804001400200042C96
:1001000011241FBECFEFCDBFDFE7DEBFE4EFF0E08D
:1001100041E019C0B791A79137912791079107FD49
:100120000EC097918791EF01F92FE82F0BBF079031
:100130000D92A217B307D9F7FE011BBE04C01D9292
:10014000A217B307E1F7E030F40721F70E94AC00F3
:080150000C94AA00F894FFCF03
:100158000E946D010E94970180916000816090E08B
:1001680028ED24BF809360000E940A02E0E5F0E0D9
:100178008081897F82608083789400E414E0C0E500
:10018800D0E080910140882309F446C0F8018085B9
:10019800807790E09595879595958795959587951E
:1001A8009595879580930040809100408430F1F0C8
:1001B80028F4823069F0833091F004C08530E9F08A
:1001C800863011F181E00E940F020E94EF0122C0E7
:1001D800809100400E940F020E94E5011BC080919F
:1001E80000400E940F020E94A50114C080910040A7
:1001F8000E940F020E94B2010DC0809100400E942F
:100208000F020E94D90106C0809100400E940F028F
:100218000E94BF011092014088818160888388957F
:0802280088818E7F8883ADCF31
:100230001F920F920FB60F9211240BB60F922F93AD
:100240003F934F935F936F937F938F939F93AF935E
:10025000BF93EF93FF930E940402E0E0FAE081E095
:1002600090E080A391A380E1838710920140E0E2B7
:10027000F4E082898360828BFF91EF91BF91AF910F
:100280009F918F917F916F915F914F913F912F91AE
:0E0290000F900BBE0F900FBE0F901F90189591
:10029E001F920F920FB60F9211240BB60F928F93DF
:1002AE00EF93FF93E0E2F4E084E0818781E08093B6
:1002BE00014082898C7F828BFF91EF918F910F90FD
:0C02CE000BBE0F900FBE0F901F901895F4
:1002DA00E0E4F4E088E8838780E78487E0E6F4E0F6
:1002EA0084E083879EEB94879EE090938C04E0E2FF
:1002FA00F4E098E09183958382838BE0828B089562
:10030A00E0E0F2E081E082AF9BE4908BE0E0FAE08B
:10031A00818781E090E080A791A780E1828781E8C8
:04032A00808308952F
:10032E00E0E0F7E0128295E8908B8FE7848B908F58
:0C033E00848F90A384A381E08083089545
:10034A00E0E0F7E085EB828B80E1838B95ED928F7D
:0A035A00838F95EF92A383A308950B
:10036400E0E0F7E089EA828B84E1838B99EC928F59
:0A037400838F99EE92A383A30895EE
:10037E00E0E0F7E085E1828B80E2838B128E838F43
:0A038E0081EF82A386E183A30895A6
:10039800E0E4FAE081E0838380E1818380E887A359
:0A03A80080E481A78CE880830895AB
:1003B200E0E0F7E0128A80E2838B81EF828F80E1B6
:0803C200838F12A213A208951B
:1003CA00E0E0F7E0128A80E2838B128E838F12A21A
:0403DA0083A308955C
:1003DE00E0E0F7E0128A138A128E138E12A213A295
:0203EE00089570
:0C03F00090E08093280A9093290A089559
:0C03FC00E0E4FAE08081816080830895D5
:0C040800E0E4FAE080818E7F808308959C
:0A0414000E9485010E94CC010895AA
:0A041E000E94F8010E94FE010895FB
:040428000C94000030
:01042C0001CE
:02000004008278
:090000000000000000C00800002F
:02000004008377
:040000005CC5C55CBA
:00000001FF
